:020000040800F2
:10000000300700209D0100089D3A00084F3100088C
:10001000853A00082B0C0008BD45000800000000D0
:10002000000000000000000000000000E93B0008A4
:100030003F0F000800000000E73A00086D3D00088F
:10004000B7010008B7010008B7010008B7010008B0
:10005000B7010008B7010008B7010008B7010008A0
:10006000B7010008B7010008B7010008B701000890
:10007000B7010008B7010008B7010008B701000880
:10008000B7010008B701000809080008B701000817
:10009000B7010008B7010008B7010008B701000860
:1000A000B7010008B7010008B7010008B701000850
:1000B000B7010008B7010008B7010008B701000840
:1000C000B7010008B7010008B7010008B701000830
:1000D000B7010008B7010008AD450008B7010008E6
:1000E000B7010008B7010008B7010008B701000810
:1000F000B7010008B7010008B7010008B701000800
:10010000B7010008B7010008B7010008B7010008EF
:10011000B7010008B7010008B7010008B7010008DF
:10012000510E0008B7010008B7010008B701000828
:10013000B7010008B7010008B7010008B7010008BF
:10014000B7010008B7010008B7010008B7010008AF
:10015000B7010008B7010008B7010008B70100089F
:10016000B7010008B7010008B7010008B70100088F
:10017000B7010008B7010008B7010008000000003F
:10018000B7010008B7010008DFF80CD000F084FACE
:1001900000480047F5540008300700200648804713
:1001A00006480047FEE7FEE7FEE7FEE7FEE7FEE75C
:1001B000FEE7FEE7FEE7FEE7293E000889010008AA
:1001C0002DE9F05F0546002092469B46884606468C
:1001D000814640241BE0284641464746224600F01F
:1001E0006AF853465A46C01A914110D31146184630
:1001F000224600F051F82D1A67EB01084F462246BF
:100200000120002100F048F817EB00094E41201EA4
:10021000A4F10104DFDC484631462A464346BDE8E6
:10022000F09FD2B201E000F8012B491EFBD27047CB
:100230000022F6E710B513460A4604461946FFF7B2
:10024000F0FF204610BD00F0004230F000400AD020
:10025000C10D01F56071C0F3160042EA0151C208F8
:1002600040071143704700200146704730B50B46E8
:10027000014600202022012409E021FA02F59D42D6
:1002800005D303FA02F5491B04FA02F52844151EAA
:10029000A2F10102F1DC30BD202A04DB203A00FA91
:1002A00002F1002070479140C2F1200320FA03F3CD
:1002B000194390407047202A04DB203A21FA02F0CB
:1002C0000021704721FA02F3D040C2F12002914090
:1002D000084319467047F0B400F0004221F0004195
:1002E00020F00040CE0DC30DC1F3160141F4000112
:1002F000C0F316004C42154640F40000761E09E09B
:1003000010EB440002D582F0004240428842F7D808
:1003100040005B1EB342F9DA18B1F0BC002100F0D6
:10032000E8B92846F0BC70472DE9FE4F804681EAC7
:100330000300C00F0C46009021F0004123F000455F
:10034000B8EB0200A94105D24046214690461C4622
:100350000B46024623F00040104347D0270DC7F359
:100360000A00C3F30A510290401A019040286BDA48
:10037000C3F3130040F4801B0098924620B1002381
:10038000D2EB030A63EB0B0B01985946C0F1400214
:100390005046FFF781FF06460D4650465946019AE2
:1003A00000F08CF910EB08006141002487EA11523B
:1003B00084EAE7731A4340D0009A62B3019A012A93
:1003C0004FEA075215DC001B61EB02014FF00042BF
:1003D00002EA0752CDE90042001C41F58011324685
:1003E0002B4600F0C3F903B0BDE8F08F404621462C
:1003F000F9E7001B61EB0201001C41F580130018B6
:100400005B412018A2F5001747EB030140EAD570C5
:10041000B6196D4111E06D084FEA360645EAC07520
:100420004FEA0752001B61EB0201001C41F58011ED
:1004300049084FEA30000019514132462B4603B0BB
:10044000BDE8F04F00F083B900980122400000237E
:10045000D0EB020263EBE073009821464FEAE074B0
:10046000B8EB000061EB0401E9E783F000435BE7D0
:1004700081F0004158E72DE9FE4F81EA030404F0C2
:10048000004421F0004100944FF0000B23F00043A2
:1004900050EA01045ED052EA03045BD0C3F30A546D
:1004A000C1F30A552C44A4F2F3340194A0FB025486
:1004B000C1F3130141F48011C3F3130343F4801318
:1004C00001FB024400FB034E840A970A44EA81546C
:1004D00047EA8357A4FB076802958D0A05FB078549
:1004E0004FEA932C04FB0C542705029D4FEA065853
:1004F00047EA1637B5EB08056EEB070C870E920E30
:1005000047EA811742EA8312A7FB0201B6EB0B010F
:1005100064EB00042B0D43EA0C335E1844EB1C50D3
:10052000DA465146E7FB0201C5F313044FEA0B33E9
:1005300043EA14534FEA0432019C43EA0603A4F150
:100540000C040294009CCDE900B400F00FF903B054
:10055000BDE8F08F00200146F9E72DE9F04D81EA72
:10056000030404F0004B21F0004514464FF0000A4C
:1005700023F0004150EA050220D054EA01021DD0C8
:10058000C5F30A570246C5F31303C1F31300C1F3C1
:100590000A5640F4801543F48013A7EB0608101B9D
:1005A000D64608F2FD3873EB050002D308F10108C6
:1005B00001E092185B41B8F1000F03DA0020014618
:1005C000BDE8F08D00204FF48011064684460EE011
:1005D000171B73EB050705D3121B63EB05030643DB
:1005E0004CEA010C49084FEA300092185B4150EA8E
:1005F0000107EDD152EA030012D082EA040083EA37
:100600000501084305D0101BAB4106D2012200238F
:1006100006E000224FF0004302E06FF001025310A9
:100620001AEB06004CEB085110EB0A0041EB0B01F2
:10063000BDE8F04D00F08BB8C1F30A52C1F31301CD
:1006400040F2FF3341F480119A4202DA0020014661
:10065000704740F233439A42A2F2334202DC5242E4
:10066000FFF729BEFFF718BE30B5041E71F1000474
:1006700004DB4FF00044404264EB0101141E73F1AF
:10068000000405DB1C464FF00043524263EB0403B9
:10069000994208BF904230BD064C074D06E0E06825
:1006A00040F0010394E8070098471034AC42F6D3B9
:1006B000FFF76EFDDC590008FC590008202A06DB14
:1006C000CB17203A41FA02F043EAE07306E041FA20
:1006D00002F3D040C2F1200291400843194670470E
:1006E0000029A8BF7047401C490008BF20F0010046
:1006F000704710B4B0FA80FC00FA0CF050EA010424
:1007000004BF10BC704749B1CCF1200421FA04F4B5
:1007100011FA0CF118BF012121430843A3EB0C018E
:10072000CB1D4FEA00614FEA102042BF002010BCF1
:10073000704700EBC35010440029A4BF10BC7047A1
:10074000401C490008BF20F0010010BC704710B5E4
:10075000141E73F1000408DA401C41F100019218E4
:100760005B411A4301D120F0010010BD2DE9F04D8D
:1007700092469B4611B1B1FA81F202E0B0FA80F2E2
:1007800020329046FFF788FD04460F4640EA0A00F3
:1007900041EA0B0153465A46084313D0114653EA27
:1007A000010019D0C8F140025046FFF784FD05460C
:1007B0000E46504659464246FFF76EFD084305D0A7
:1007C000012004E020463946BDE8F08D00200543B5
:1007D00046EAE0762C4337430A986305E40AA0EB27
:1007E00008000022FD0A44EA47540A3002D50020DE
:1007F0000146E9E7010510196941DDE908450019DD
:100800006941BDE8F04DA2E710B50F48006800F05F
:10081000040070B10C48006820F004000A49086028
:100820000A48006820F00400C1F8000104F0BAFF93
:1008300010BD074800F046FE064800F043FE06489B
:1008400000F040FE00BFF3E700200140002101401E
:1008500068010020B0010020F801002055494A68D5
:1008600022F440324A604A6843681A434A60026888
:10087000526822F4807203685A6002685368026901
:1008800043EA022203685A600268526822F040720A
:1008900003685A600268526883681A4303685A60A2
:1008A0000268926822F4006203689A6002689268A3
:1008B000C3681A4303689A603F4B826A9A4218D011
:1008C0000268926822F0706203689A600268926817
:1008D000836A1A4303689A600268926822F0405261
:1008E00003689A6002689268C36A1A4303689A6050
:1008F0000BE00268926822F0706203689A600268F6
:10090000926822F0405203689A600268926822F06E
:10091000020203689A6002689368027E43EA420218
:1009200003689A602022125CA2B10268526842F405
:10093000006203685A600268526822F460420368E9
:100940005A6002685368426A521E43EA42320368A0
:100950005A6005E00268526822F4006203685A6037
:100960000268D26A22F470020368DA620268D36A0B
:10097000828B521E43EA02520368DA62026892686E
:1009800022F4007203689A600268936890F830203D
:1009900043EA422203689A600268926822F4806205
:1009A00003689A6002689368426943EA8222036896
:1009B0009A607047002301400100000F08B56846A7
:1009C00000F084F818B10B4890ED000A08BDBDF89E
:1009D000000000EE100AB8EE400A9FED071AC0EEC4
:1009E000010AB0EE000A20EE800ADFED040A20EED4
:1009F000200AEBE76800002000008045DB0F49403B
:100A000010B52DED028BFFF7D9FFF0EE408AB1EE65
:100A10000C0A68EE800A104890ED000AB7EE001A42
:100A200010EE810AB0EE408ADFED0C0AB0EE480A03
:100A300003F0B6FEB0EE408AB5EEC08AF1EE10FAD1
:100A400005D29FED060A38EE000AB0EE408AB0EEFD
:100A5000480ABDEC028B10BD78000020DB0FC940B6
:100A600008B5684600F032F808B1012008BDBDF8AD
:100A7000000000EE100AB8EE400A9FED0E1AC0EE1C
:100A8000010AB0EE000A20EE800ADFED0B0A20EE2C
:100A9000200A0A4880ED000A9FED090A094880ED06
:100AA000000A064890ED000A074880ED000A002081
:100AB000DCE7000000008045DB0F49407C0000209F
:100AC00000000000740000206800002038B50446D3
:100AD0006B4602220C21362004F0C8FC08B101202C
:100AE00038BD9DF801009DF8001001F00F0140EAAB
:100AF000012020800020F3E700B52DED068B81B0AA
:100B00009FED330AF0EE409A9FED320AB0EE40AA14
:100B10006846FFF7DBFF18B101B0BDEC068B00BDE6
:100B2000BDF8000000EE100AF8EE400A9FED2A1A08
:100B300080EE810AF0EE000A20EE200ADFED270A9F
:100B400060EE208A264890ED000A38EEC08A9FEDBC
:100B5000230AB4EEC08AF1EE10FA06DD9FED210AF9
:100B600038EE400AB0EE408A0CE09FED1F0AB4EE6A
:100B7000C08AF1EE10FA05D29FED1A0A38EE000A8B
:100B8000B0EE408A9FED120A88EE009A174890ED69
:100B9000000A79EE400A90ED000A9FED151A00EE6A
:100BA000810A80ED000A1348C0ED008A124890EDDA
:100BB000000A30EE480A80ED000AFFF721FF0F48D7
:100BC00080ED000A0648C0ED008A00BFA4E70000DF
:100BD0003D7FDA3A0AD7233C00008045DB0F4940CD
:100BE0007C000020DB0FC940DB0F49C070000020F3
:100BF000904F123E68000020740000206C0000201E
:100C000010B52DED028BB0EE408A0446B0EE480AD6
:100C100003F01EFD84ED000AB0EE480A03F018FE52
:100C200084ED010ABDEC028B10BD00BFFEE70000A1
:100C300001B52DED040B9DED000A80ED000A9DED40
:100C4000000ADDED010AB0EE001A01EE200ADFED28
:100C5000040A80EE201A80ED011A05B000BD0000E4
:100C6000D7B3DD3F2DED060BF0EE402ADDED021A85
:100C700072EEE11AB0EE611A7148D0ED021A41EE3F
:100C8000021AC0ED021AD0ED031A90ED013ADFED21
:100C90006D3A33EE233AC1EE833AD0ED021AF4EE08
:100CA000E13AF1EE10FA0BD2D0ED031A90ED013AD1
:100CB000DFED643A33EE233AC1EE833AC0ED023AF7
:100CC0005F48D0ED041A90ED013ADFED5E3A73EE25
:100CD000233A81EEA33AD0ED021AB4EEE13AF1EEF6
:100CE00010FA0BDDD0ED041A90ED013ADFED553A24
:100CF00033EE233AC1EE833AC0ED023A5048D0EDCC
:100D0000011A90ED023A61EE831A90ED003A43EE3B
:100D1000011A4D48C0ED001AD0ED001A484890ED78
:100D2000033AF4EEC31AF1EE10FA04DDD0ED031A23
:100D30004548C0ED001A4448D0ED001A404890EDF7
:100D4000043AF4EEC31AF1EE10FA04D2D0ED041A0C
:100D50003D48C0ED001ADDED031A30EEE10A3B48D4
:100D6000D0ED021A40EE021AC0ED021AD0ED031ABD
:100D700090ED013ADFED333A33EE233AC1EE833A98
:100D8000D0ED021AF4EEE13AF1EE10FA0BD2D0ED0A
:100D9000031A90ED013ADFED2B3A33EE233AC1EE20
:100DA000833AC0ED023A2948D0ED041A90ED013A99
:100DB000DFED243A73EE233A81EEA33AD0ED021A26
:100DC000B4EEE13AF1EE10FA0BDDD0ED041A90ED3D
:100DD000013ADFED1C3A33EE233AC1EE833AC0ED1F
:100DE000023A1A48D0ED011A90ED023A61EE831AE8
:100DF00090ED003A43EE001A1348C0ED011AD0ED11
:100E0000011A124890ED033AF4EEC31AF1EE10FA0B
:100E100004DDD0ED031A0C48C0ED011A0A48D0EDEC
:100E2000011A0A4890ED043AF4EEC31AF1EE10FAF2
:100E300004D2D0ED041A0448C0ED011A06B0704780
:100E4000EC0000206F12833A2400002000010020F3
:100E500010B5024800F084FD10BD000040020020E3
:100E60000146087810381823B0FBF3F20848805C7C
:100E7000C865032A05D908686FF30900001D886555
:100E800003E008686FF309008865886D704700000B
:100E90009C590008014600208A6A8B69CBB932B19F
:100EA000012A0DD0022A03D0032A10D10EE000BF80
:100EB000CB6A03F08073B3F1807F00D1012007E09B
:100EC000CB6AB3F1C07F00D1012001E000E000BF98
:100ED00034E08B69B3F5005F1AD132B1012A07D033
:100EE000022A03D0032A11D10AE000BF01200EE03C
:100EF000CB6A03F08073B3F1807F00D1012006E05C
:100F0000CB6AB3F1C07F00D1012000E000BF15E043
:100F100032B1012A05D0022A04D0032A0CD103E001
:100F200000BF00BF012008E0CB6A03F08073B3F17B
:100F3000807F00D1012000E000BF00BF70477047F4
:100F400072B600BFFEE7000000B59FED440A4448BA
:100F500080ED000A9FED410A80ED010AB0EE080A1B
:100F6000404880ED000A9FED400A80ED010A9FEDA8
:100F70003B0A80ED020A9FED3D0A80ED030A9FEDDA
:100F80003C0A80ED040A9FED350A3A4880ED000ADC
:100F90009FED320A384880ED000AB0EE000A37486B
:100FA00080ED000AB6EE000A80ED010A9FED2B0AE3
:100FB00080ED020AB6EE000A80ED030ABEEE000ADA
:100FC00080ED040AB7EE000A2D4880ED000AB6EE67
:100FD000000A80ED010A9FED210A80ED020A9FEDD3
:100FE000290A80ED030A9FED280A80ED040AB0EE7D
:100FF000000A264880ED000AB6EE000A80ED010ADC
:101000009FED160A80ED020A9FED1E0A80ED030A8D
:101010009FED1D0A80ED040A9FED101AF7EE000AFD
:101020009FED1B0A1B4802F0DDFA9FED0C1AF7EE4C
:10103000000A9FED170A184802F0D4FADFED070AFC
:101040009FED160A164802F0B3FADFED040A9FED91
:10105000130A144802F0ACFA00BD000000000000C2
:101060002400002014010020CDCCCC3DCDCC4C3F41
:10107000CDCC4CBF6000002064000020D8000020D0
:10108000EC0000209A99C9409A99C9C0000100203B
:101090000AD7233CB8000020C80000209A99193EC6
:1010A000440000204C00002030B50246854C886981
:1010B000A04200D000BF00BF92F83C00012801D13F
:1010C000022030BD012082F83C0000BF08680928DA
:1010D00016D91068C0680C780A3C04EB4405072454
:1010E000AC40A0431468E0600C780A3C04EB440474
:1010F0008868A0401468E46820431468E06013E046
:10110000106800690C7804EB44050724AC40A04348
:10111000146820610C7804EB44048868A0401468CB
:1011200024692043146820611068806B20F440100B
:101130001468A0631068846B088A401E44EA00505B
:101140001468A0630879C01C0C7C001B00EB8004B1
:101150001F20A0401468A46B84431068846308793E
:10116000C01C0C7C001B00EB8004088880B2A040EF
:101170001468A46B20431468A063524C8869A04291
:1011800018D01068806820F470201468A06010687F
:1011900080688C6920431468A0601068806820F41F
:1011A00040101468A06010688068CC6920431468FF
:1011B000A0600BE01068806820F470201468A060C4
:1011C0001068806820F440101468A060487D30B139
:1011D0001068406840F480601468606005E0106842
:1011E000406820F4806014686060087D30B1106849
:1011F000406840F480501468606005E01068406802
:1012000020F48050146860604868012804D00228E7
:101210000FD0032827D119E0106840696FF30B0045
:101220001468606110684069CC682043146860618C
:1012300026E0106880696FF30B001468A0611068E5
:101240008069CC6820431468A06119E01068C06907
:101250006FF30B001468E0611068C069CC6820432C
:101260001468E0610CE01068006A6FF30B0014680A
:1012700020621068006ACC6820431468206200BFB6
:1012800000BF114B114C1068A04206D1086812280B
:1012900003D1586840F4800058600C4C1068A0429C
:1012A00009D10868102802D00868112803D15868AD
:1012B00040F40000586000BF002082F83C0000BFEE
:1012C00000BFFEE601000F000023014000200140A6
:1012D0007047000010B502460B4600BF92F83C0074
:1012E000012801D1022010BD012082F83C0000BF7E
:1012F0000F49486820F01F00486048681C68204378
:101300004860486820F44040486048685C68204372
:101310004860486820F47060486048689C682043D2
:10132000486000BF002082F83C0000BF00BFDAE741
:101330000023014038B502460020009000BF92F81B
:101340003C00012801D1022038BD012082F83C0078
:1013500000BF0868092816D91068C0680C780A3CD4
:1013600004EB44050724AC40A0431468E0600C780B
:101370000A3C04EB44048868A0401468E4682043F5
:101380001468E06013E0106800690C7804EB440511
:101390000724AC40A043146820610C7804EB44049B
:1013A0008868A04014682469204314682061486854
:1013B000072817D21068406B0C79641E04EB840573
:1013C0001F24AC40A04314686063088880B20C7985
:1013D000641E04EB8404A0401468646B204314680A
:1013E000606331E048680D2817D21068006B0C79F3
:1013F000E41F04EB84051F24AC40A0431468206361
:10140000088880B20C79E41F04EB8404A0401468BF
:10141000246B20431468206316E01068C06A0C79BE
:101420000D3C04EB84051F24AC40A0431468E0622B
:10143000088880B20C790D3C04EB8404A040146849
:10144000E46A20431468E062194B1A4C1068A04209
:1014500006D10868122803D1586840F4800058600B
:10146000144C1068A0421CD10868102802D00868EB
:10147000112816D1586840F40000586008681028F8
:101480000FD10D4800680D4CB0FBF4F000EB80006C
:101490004000009002E00098401E00900098002854
:1014A000F9D100BF002082F83C0000BF00BF4BE72D
:1014B00000230140002001408C00002040420F002A
:1014C000704770472DE9F04104460025002620684A
:1014D00007682068D0F8048007F0020508F02006AD
:1014E00095B38EB3206C00F0100018B9206C40F456
:1014F000007020642068806800F04050E8B9207EC9
:10150000D8B92068C06A00F4700020B120688068F3
:1015100000F4806088B92068406820F020002168CD
:101520004860206C20F480702064206C00F48050AF
:1015300018B9206C40F0010020642046FFF7C0FF7E
:101540006FF012002168086007F0040508F08006BB
:10155000E5B3DEB3206C00F0100018B9206C40F445
:10156000005020642068806800F4401038BB206878
:10157000806B00F4401020B12068806800F4806027
:10158000E8B92068406800F48060C0B920688068CD
:1015900000F0405098B9207E88B92068406820F05B
:1015A000800021684860206C20F480502064206C0A
:1015B00000F4807018B9206C40F0010020642046CF
:1015C000FFF786FE6FF00C002168086007F0010548
:1015D00008F0400685B17EB12068006800F0010087
:1015E00050B1206C40F480302064204600F050F868
:1015F0006FF001002168086007F0200508F08066A0
:101600007DB176B1606C40F0020060646FF0200044
:10161000216808602046FFF754FF6FF02000216822
:101620000860BDE8F081000070B5044600250CB9E3
:10163000012070BD1549A06A884200D000BF206C0F
:1016400030B9204600F026F80020606484F83C00A1
:10165000206C00F0100088B9206C20F4885040F015
:10166000020020642046FFF7F9F800206064206C37
:1016700020F0020040F00100206400E0012500BFDE
:10168000002084F83C0000BF2846D2E70100000F8C
:101690007047000010B586B00446142101A8FEF77B
:1016A000C7FD7249206888426CD100BF00200090BD
:1016B0006F48006840F480706D4908600846006813
:1016C00000F48070009000BF00BF00BF00200090B9
:1016D00067481438006840F0010065491439086013
:1016E0000846006800F00100009000BF00BF00BF86
:1016F000002000900846006840F00200086008469C
:10170000006800F00200009000BF00BF412001907F
:10171000032002900020039001A9564800F0CAFA65
:1017200002200190032002900020039001A952485A
:1017300000F0C0FA5148524908600020486000217A
:101740004F488160C1604FF480610161490041618F
:10175000890081614911C16100210162416200F08B
:101760001FFA08B1FFF7ECFB00BF4548A063846394
:1017700000BF00220121122000F02AFC122000F0FC
:1017800013FC70E03F492068884234D100BF00203C
:1017900000903748006840F40070354908600846FA
:1017A000006800F40070009000BF00BF00BF002080
:1017B00000902F481438006840F002002C4914397A
:1017C00008600846006800F00200009000BF00BFFB
:1017D00001200190032002900020039001A92648D7
:1017E00000F068FA00220121122000F0F1FB122023
:1017F00000F0DAFB37E024492068884233D100BF8B
:10180000002000901A48006840F480601849086081
:101810000846006800F48060009000BF00BF00BF71
:101820000020009012481438006840F00100104970
:10183000143908600846006800F00100009000BFFD
:1018400000BF08200190032002900020039001A90E
:10185000084800F02FFA00220121122000F0B8FB06
:10186000122000F0A1FB06B010BD000000200140D6
:10187000443802400000024000040240106402406C
:1018800040020020002101400022014070B50446C2
:10189000A56D00F00FFB064694F83500022808D02D
:1018A0008020606500BF002084F8340000BF012064
:1018B00070BD2068006820F016002168086020686C
:1018C000406920F0800021684861206C08B9A06C54
:1018D00028B12068006820F00800216808602068AE
:1018E000006820F001002168086010E000F0E2FAD2
:1018F000801B05280BD920206065032084F8350063
:1019000000BF002084F8340000BF0320D0E7206827
:10191000006800F001000028E8D194F85C103F2036
:101920008840A860012084F8350000BF002084F8BA
:10193000340000BF00BFBBE7014691F83500022824
:1019400003D08020486501207047052081F83500CC
:101950000868006820F001000A6810600020F3E7C2
:10196000F8B50446002000908C4800684FF41651EA
:10197000B0FBF1F7A56D2E6894F85C100820884044
:10198000304098B12068006800F0040070B1206811
:10199000006820F004002168086094F85C100820BA
:1019A0008840A860606D40F00100606594F85C10AC
:1019B00001208840304068B12068406900F0800014
:1019C00040B194F85C1001208840A860606D40F040
:1019D0000200606594F85C1004208840304068B1D3
:1019E0002068006800F0020040B194F85C10042008
:1019F0008840A860606D40F00400606594F85C1059
:101A000010208840304078B32068006800F008005B
:101A100050B394F85C1010208840A86020680068DB
:101A200000F4802080B12068006800F4002028B90C
:101A3000206CC8B12046216C884715E0A06C98B195
:101A40002046A16C88470FE02068006800F4807091
:101A500028B92068006820F0080021680860206C20
:101A600010B12046216C884794F85C1020208840F3
:101A70003040002865D02068006800F01000002881
:101A80005FD094F85C1020208840A86094F835005E
:101A9000052828D12068006820F016002168086019
:101AA0002068406920F0800021684861206C08B9F6
:101AB000A06C28B12068006820F008002168086048
:101AC00094F85C103F208840A860012084F835001D
:101AD00000BF002084F8340000BF206D10B1204604
:101AE000216D8847F8BD2068006800F4802080B12F
:101AF0002068006800F4002028B9606C10B120460E
:101B0000616C88471DE0E06BD8B12046E16B8847E7
:101B100017E02068006800F4807068B920680068E9
:101B200020F0100021680860012084F8350000BF13
:101B3000002084F8340000BFE06B10B12046E16B58
:101B40008847606D38B3606D00F00100F0B105208A
:101B500084F835002068006820F0010021680860E2
:101B600000BF0098401C0090B84200D905E02068F2
:101B7000006800F001000028F3D100BF012084F8C4
:101B8000350000BF002084F8340000BFE06C10B1C5
:101B90002046E16C884700BFA4E700008C000020CD
:101BA0002DE9F0410446002500F084F9074614B9F8
:101BB0000120BDE8F081606A00B100BF022084F816
:101BC000350000BF002084F8340000BF20680068A2
:101BD00020F00100216808600AE000F06BF9C01BEA
:101BE000052805D920206065032084F83500E0E74A
:101BF0002068006800F001000028EED12068056828
:101C000021480540D4E901010843E16808432169FE
:101C1000084361690843A1690843E1690843216AEF
:101C200008430543606A042803D1D4E90B01084343
:101C30000543206805602068456925F00705606A4E
:101C40000543606A04280DD1A06A0543E06A48B1E3
:101C50002046FFF71FF928B140206065012084F875
:101C60003500A6E7206845612046FFF7F9F80646EB
:101C700094F85C103F208840B0600020606501202F
:101C800084F83500002094E73F8010F070B50446DA
:101C900000F010F906462546681C10B1044800788B
:101CA000054400BF00F006F9801BA842FAD370BDBE
:101CB00088000020F8B502460B46002500240020CD
:101CC0000021D6E0012606FA01F51E6806EA0504A1
:101CD000AC4274D11E7906F00306012E04D01E79A1
:101CE00006F00306022E13D190684F000326BE4073
:101CF000B0434F00DE68BE4030439060506801261C
:101D00008E40B0431E79C6F300168E4030435060BB
:101D10001E7906F00306032E09D0D0684F00032673
:101D2000BE40B0434F009E68BE403043D0601E7935
:101D300006F00306022E13D1CF0802F1200656F852
:101D400027004E07F70E0F26BE40B0434F07FF0E89
:101D50001E69BE403043CF0802F1200646F8270036
:101D600010684F000326BE40B0431E7906F00306FC
:101D70004F00BE40304310605E6806F44036002ECF
:101D800076D000BF002600963C4E366846F480466A
:101D90003A4F3E603E46366806F48046009600BFE5
:101DA00000BF374E8F0856F827008E07370F0F26D3
:101DB000BE40B043334EB24202D1002624E057E089
:101DC000314EB24201D101261EE0304EB24201D165
:101DD000022619E02E4EB24201D1032614E02D4E08
:101DE000B24201D104260FE02B4EB24201D10526AA
:101DF0000AE02A4EB24201D1062605E0284EB24240
:101E000001D1072600E008268F073F0FBE40304370
:101E10001B4E8F0846F82700224E3068A0435E68AC
:101E200006F4801606B120431E4E3060361D306821
:101E3000A0435E6806F4001606B12043194E361D15
:101E40003060184E361F3068A0435E6806F40036D6
:101E500006B12043134E361F3060361F3068A04352
:101E60005E6806F4803606B120430E4E083E3060B0
:101E7000491C1029FFF426AFF8BD00004438024089
:101E800008380140000002400004024000080240FF
:101E9000000C0240001002400014024000180240F2
:101EA000001C0240083C01400AB1816101E00B04C2
:101EB000836170470148006870470000800000207F
:101EC00003480068034909780844014908607047DD
:101ED000800000208800002010B50D48006840F404
:101EE00000700B4908600846006840F48060086094
:101EF0000846006840F480700860032000F0A6F8EF
:101F0000002000F007F800F02BF8002010BD0000C2
:101F1000003C024070B504460E4800784FF47A71D8
:101F2000B1FBF0F00C490968B1FBF0F5284600F070
:101F30002FFC08B1012070BD102C07D200222146D1
:101F4000501E00F045F80548046001E00120F2E76A
:101F50000020F0E7880000208C0000208400002092
:101F600008B500BF002000900E48006840F4804093
:101F70000C4908600846006800F48040009000BFEB
:101F800000BF00BF00200090081F006840F0805094
:101F9000091F08600846006800F08050009000BFEC
:101FA00000BF08BD443802400146084600280DDB4A
:101FB00000BF00BF00F01F0301229A4043099B00AD
:101FC00003F1E023C3F8002100BF00BF00BF70474A
:101FD0002DE9F05F80460D461646002702F01CFBF7
:101FE000074639462A46334601F00700C0F1070A82
:101FF000BAF1040F02D94FF0040A01E0C0F1070A58
:10200000D14600F1040ABAF1070F02D24FF0000ADC
:1020100001E0A0F1030AD4464FF0010A0AFA09FAD6
:10202000AAF1010A0AEA020A0AFA0CFA4FF0010BB5
:102030000BFA0CFBABF1010B0BEA030B4AEA0B04A6
:102040002146404602F0F0FABDE8F09F00BF00F0E4
:102050000702064B19684FF6FF031940044B0B4368
:1020600043EA0221014B196000BF70470CED00E00C
:102070000000FA0570B504460D460CB9012070BD8C
:102080005848006800F00700A84209D255490D7071
:102090000846006800F00700A84201D00120EEE7E2
:1020A000207800F0020002281DD1207800F0040002
:1020B000042805D14C48006840F4E0504A490860C3
:1020C000207800F00800082805D14748006840F44F
:1020D0006040454908604448006820F0F000A1686D
:1020E000084341490860207800F00100A8B3606807
:1020F000012807D13C4808380068C0F34040B8B90F
:102100000120BCE76068022802D06068032807D17C
:10211000354808380068C0F3406048B90120AEE790
:10212000314808380068C0F3400008B90120A6E72C
:102130002D48006820F00300616808432A490860C0
:10214000FFF7B8FE064609E0FFF7B4FE801B41F238
:102150008831884202D9032091E707E022480068CD
:1021600000F00C006168B0EB810FEDD11D480068F4
:1021700000F00700A84209D91A490D700846006806
:1021800000F00700A84201D0012078E7207800F095
:102190000400042807D11448006820F4E050E168E6
:1021A000084311490860207800F00800082808D189
:1021B0000D48006820F46040216940EAC1000A49E6
:1021C000086000F03FF808490968C1F30311074AA5
:1021D000515CC8400649086006480068FFF79AFE4F
:1021E00000204CE7003C024008380240A459000897
:1021F0008C00002084000020014800687047000027
:102200008C00002000B5FFF7F7FF04490968C1F30F
:102210008221034A515CC84000BD000008380240DA
:10222000B459000800B5FFF7E7FF04490968C1F396
:102230004231034A515CC84000BD000008380240EA
:10224000B45900082DE9F047002400250026A146D6
:102250002548006800F00C0020B1042805D00828AB
:102260003AD105E0DFF8849039E0DFF8849036E079
:102270001D48001F006800F03F041B48001F006855
:1022800000F4800078B11A481749091F0968C1F3A2
:102290008811A0FB01700146224600233846FDF755
:1022A0008FFF05460EE011480F49091F0968C1F369
:1022B0008811A0FB01700146224600233846FDF735
:1022C0007FFF05460848001F0068C0F30140401C1E
:1022D0004600B5FBF6F902E0DFF8109000BF00BF42
:1022E0004846BDE8F0870000083802400024F400AA
:1022F00000127A00F8B504460CB90120F8BD207828
:1023000000F00100002874D0F948006800F00C00CB
:1023100004280DD0F648006800F00C00082813D1FE
:10232000F348001F006800F48000B0F5800F0BD167
:10233000EF4808380068C0F34040002859D0606872
:10234000002856D10120D9E700BF6068B0F5803F72
:1023500008D1E7480838006840F48030E44908397B
:1023600008601EE06068B0F5A02F0DD1E048083885
:10237000006840F48020DE4908390860084600689B
:1023800040F4803008600CE0D9480838006820F438
:102390008030D749083908600846006820F480205A
:1023A000086000BF606890B1FFF784FD054606E055
:1023B000FFF780FD401B642801D903209EE7CC482D
:1023C00008380068C0F340400028F1D011E0FFF762
:1023D00071FD054606E0FFF76DFD401B642801D93D
:1023E00003208BE7C24808380068C0F3404000284B
:1023F000F1D1207800F0020002285FD1BC480068CB
:1024000000F00C0058B1BA48006800F00C00082831
:102410001CD1B748001F006800F48000B0B9B44870
:1024200008380068C0F3400020B1E068012801D0FE
:10243000012063E7AE480838006820F0F800216901
:1024400040EAC100AA490839086037E0E06800B3F3
:102450000120A8490860FFF72DFD054606E0FFF7BB
:1024600029FD401B022801D9032047E7A04808386E
:102470000068C0F340000028F1D09D48083800688B
:1024800020F0F800216940EAC10099490839086044
:1024900014E0002097490860FFF70CFD054606E0B0
:1024A000FFF708FD401B022801D9032026E79048CA
:1024B00008380068C0F340000028F1D1207800F00F
:1024C000080008282CD16069A8B101208A49086059
:1024D000FFF7F0FC054606E0FFF7ECFC401B022886
:1024E00001D903200AE782486C300068C0F340003D
:1024F0000028F1D014E000207F490860FFF7DAFCE3
:10250000054606E0FFF7D6FC401B022801D9032050
:10251000F4E677486C300068C0F340000028F1D141
:10252000207800F00400042870D10027704838306B
:10253000006800F0805090B900BF002000906C4807
:102540003830006840F080506949383108600846EA
:10255000006800F08050009000BF00BF012767486E
:10256000006800F48070B0B96448006840F480707E
:1025700062490860FFF79EFC054606E0FFF79AFCFB
:10258000401B022801D90320B8E65C48006800F42B
:1025900080700028F2D000BFA068012808D15448FC
:1025A0006830006840F001005149683108601DE062
:1025B000A06805280DD14E486830006840F004003E
:1025C0004B49683108600846006840F00100086027
:1025D0000CE047486830006820F001004449683149
:1025E00008600846006820F00400086000BFA0688A
:1025F000A8B1FFF75FFC054609E0FFF75BFC401B55
:1026000041F28831884202D9032077E626E0384833
:1026100068300068C0F340000028EED013E0FFF7F8
:1026200049FC054608E0FFF745FC401B41F28831B4
:10263000884201D9032061E62D4868300068C0F364
:1026400040000028EFD1012F07D129483830006819
:1026500020F0805026493831086000BFA06900286A
:1026600045D02348006800F00C0008285DD0A06920
:10267000022845D100201F490866FFF71BFC0546CC
:1026800006E0FFF717FC401B022801D9032035E6BE
:10269000174808380068C0F340600028F1D1D4E939
:1026A00007010843616A40EA81110122A06AC2EB76
:1026B000500041EA00412C20005D41EA00600C49D5
:1026C000091F086001200B490866FFF7F3FB054668
:1026D00006E0FFF7EFFB401B022801D903200DE6BF
:1026E000034808380068C0F340600028F1D049E092
:1026F0000838024000004742800E47420070004008
:10270000002021490866FFF7D5FB054606E0FFF7E4
:10271000D1FB401B022801D90320EFE51B480068CC
:10272000C0F340600028F2D12CE0A069012800D15C
:10273000E4E51648001D0668A069012820D006F4CB
:102740008001E06981421BD106F03F01206A81428D
:1027500016D147F6C0703040616AB0EB811F0FD1CF
:1027600006F440310122A06AC2EB5000B1EB004FE9
:1027700006D106F070612C20005DB1EB006F01D036
:102780000120BBE50020B9E50000474200380240C7
:1027900070B504462546681EB0F1807F01D3012044
:1027A0000FE0681E4FF0E02148610F214FF0FF302D
:1027B00001F03AFF00204FF0E02188610720086116
:1027C000002070BD10B50346002200BF93F83C0006
:1027D000012801D1022010BD012083F83C0000BF78
:1027E00022F0FF00CC6840EA040222F440708C68BA
:1027F00040EA040222F480604C6840EA040222F4B9
:1028000000600C6840EA040222F480500C6940EA3F
:10281000040222F400504C6940EA040222F4804091
:10282000CC6940EA04021868426400BF002083F8C3
:102830003C0000BF00BFCEE730B502460B4600BFEC
:1028400092F83C00012801D1022030BD012082F81D
:102850003C0000BF022082F83D0010684468106808
:10286000816824F070041868044310684460184DAF
:102870001068A8421BD01068B0F1804F17D0154DDA
:102880001068A84213D0144D1068A8420FD0134D01
:102890001068A8420BD0124D1068A84207D0114D05
:1028A0001068A84203D0104D1068A84205D121F04D
:1028B00080015868014310688160012082F83D0062
:1028C00000BF002082F83C0000BF00BFBDE7000051
:1028D000000001400004004000080040000C0040DF
:1028E00000040140004001400018004010B586B0CF
:1028F0000446142101A8FDF79BFC12492068884278
:102900001ED100BF002000900F48006840F0010079
:102910000D4908600846006800F00100009000BF03
:1029200000BF4FF4E060019002200290002003906D
:10293000022004900120059001A90448FFF7BAF98C
:1029400006B010BD000001403038024000000240D7
:102950002DE9F04104460D461646002700BF94F8C5
:102960003C00012802D10220BDE8F081012084F85A
:102970003C0000BF36B1042E1BD0082E31D00C2EE7
:102980005ED145E02946206801F0DAFA20688069C6
:1029900040F00800216888612068806920F0040008
:1029A00021688861206880692969084321688861F5
:1029B00048E02946206801F0FBFA2068806940F46D
:1029C0000060216888612068806920F48060216847
:1029D000886120688069296940EA0120216888614E
:1029E00030E02946206801F021FB2068C06940F0F2
:1029F00008002168C8612068C06920F004002168CF
:102A0000C8612068C069296908432168C86119E064
:102A10002946206801F046FB2068C06940F4006048
:102A20002168C8612068C06920F480602168C8619D
:102A30002068C069296940EA01202168C86101E075
:102A4000012700BF00BF00BF002084F83C0000BF8A
:102A5000384689E710B504460CB9012010BD94F83A
:102A60003D0028B9002084F83C00204600F026F8FC
:102A7000022084F83D00211D206801F0DFF90120CB
:102A800084F8460000BF84F83E0001213F20015534
:102A9000402001554120015500BF00BF012084F8AE
:102AA000420043200155442001554520015500BFF7
:102AB000012084F83D000020D0E7000008B50A4A54
:102AC000016891420FD100BF0021009107490968B8
:102AD00041F00101054A11601146096801F0010148
:102AE000009100BF00BF08BD000001404438024013
:102AF00070B504460D4615B994F83E000BE0042D60
:102B000002D13F20005D06E0082D02D14020005D8B
:102B100001E04120005D012801D0012070BD1DB9F8
:102B2000022084F83E000EE0042D03D102213F2054
:102B3000015508E0082D03D102214020015502E093
:102B400002214120015501222946206801F0E6F9C1
:102B500023492068884203D022492068884201D155
:102B6000012000E0002028B12068406C40F40040C3
:102B7000216848641A49206888421BD02068B0F157
:102B8000804F17D018492068884213D01749206811
:102B900088420FD01649206888420BD0114920681E
:102BA000884207D013492068884203D01249206820
:102BB00088420CD12068806800F00706062E0CD0F1
:102BC0002068006840F001002168086005E0206886
:102BD000006840F001002168086000209EE70000C6
:102BE00000000140000401400004004000080040D3
:102BF000000C004000400140001800407047704742
:102C00002DE9F84F0446206805682068C6682068EA
:102C100047694FF00009CA4605F00F09B9F1000FE6
:102C20000AD105F0200038B106F0200020B120467E
:102C300001F0B1FABDE8F88FB9F1000F7CD007F0D0
:102C4000010018B906F49070002875D005F0010055
:102C500030B106F4807018B1606C40F0010060641F
:102C600005F0040030B107F0010018B1606C40F0CD
:102C70000200606405F0020030B107F0010018B1F5
:102C8000606C40F00400606405F0080048B106F094
:102C9000200010B907F0010018B1606C40F0080086
:102CA0006064606C002846D005F0200028B106F072
:102CB000200010B1204601F06EFA20684069C0F390
:102CC000801A606C00F0080010B9BAF1000F2DD026
:102CD000204601F01AFA2068406900F040004028C0
:102CE00020D100BF00BF2168143151E8001F21F03E
:102CF00040002168143141E80002002AF3D100BFEE
:102D0000E06B50B17F48E16B0865E06BFEF714FEA5
:102D100088B1E06B016D88470DE02046FFF76FFF3B
:102D200009E009E02046FFF76AFF04E02046FFF7CC
:102D300066FF002060647DE7206B012878D105F0F4
:102D40001000002874D006F010000028FAD000BF50
:102D50000020009020680068009020684068009083
:102D600000BF00BF2068406900F04000402870D1DB
:102D7000E06B006840681FFA80F8B8F1000F58D087
:102D8000A08D404555DDA4F82E80E06BC069B0F5FC
:102D9000807F43D000BF00BF21680C3151E8001F85
:102DA00021F4807021680C3141E80002002AF3D13F
:102DB00000BF00BF00BF2168143151E8001F21F09F
:102DC00001002168143141E80002002AF3D100BF5C
:102DD00000BF00BF2168143151E8001F21F04000FE
:102DE0002168143141E80002002AF3D100BF2020FD
:102DF00084F842000020206300BF00BF21680C312E
:102E000051E8001F21F0100021680C3141E8000258
:102E1000002AF3D100BFE06BFEF738FD02206063AB
:102E2000A08DE28D801A81B22046FFF7E7FE0EE00A
:102E300052E0A08D40450AD1E06BC069B0F5807FBB
:102E400005D102206063A18D2046FFF7D7FEF1E691
:102E5000FFE7A08DE18D401A1FFA80F8E08DD0B316
:102E6000B8F1000F37D000BF00BF21680C3151E826
:102E7000001F21F4907021680C3141E80002002A03
:102E8000F3D100BF00BF00BF2168143151E8001F1B
:102E900021F001002168143141E80002002AF3D139
:102EA00000BF202084F842000020206300BF00BF44
:102EB00021680C3151E8001F21F0100021680C310D
:102EC00041E80002002AF3D100BF022060634146BE
:102ED0002046FFF793FEADE605F0800030B106F026
:102EE000800018B1204601F0EBFAA3E605F040009F
:102EF00030B106F0400018B1204601F03CF999E6E7
:102F000000BF97E6F940000810B504460CB901204F
:102F100010BDA06900B100E000BF94F8410028B9DD
:102F2000002084F84000204600F02AF8242084F88D
:102F300041002068C06820F400502168C860204625
:102F400001F0A8F92068006920F490402168086128
:102F50002068406920F02A00216848612068C06824
:102F600040F400502168C86000206064202084F88C
:102F7000410084F842000020606300BFC8E7000001
:102F800010B586B00446142101A8FDF751F92D496A
:102F90002068884254D100BF002000902A48006871
:102FA00040F40030284908600846006800F400300A
:102FB000009000BF00BF00BF0020009022481038E2
:102FC000006840F001002049103908600846006898
:102FD00000F00100009000BF00BF00BF0020009083
:102FE0000846006840F0080008600846006800F0E5
:102FF0000800009000BF00BF042001900220029052
:1030000000200390032004900720059001A90F4899
:10301000FEF750FE40200190022002900020039015
:10302000032004900720059001A90948FEF742FEFD
:10303000002211462620FEF7CBFF2620FEF7B4FF24
:1030400006B010BD0044004040380240000002407D
:10305000000C024070472DE9F84F04460E46174613
:1030600099464FF0000A94F84100202850D106B14B
:1030700017B90120BDE8F88F00206064212084F892
:103080004100FEF717FF8246A784E784A068B0F5E9
:10309000805F04D1206910B90025B04602E03546B2
:1030A0004FF000081EE05346002280212046CDF854
:1030B000009001F035FA20B1202084F8410003206F
:1030C000D8E745B9B8F80000C0F3080021684860A7
:1030D00008F1020803E02878216848606D1CE08C44
:1030E000401EE084E08C0028DDD1534600224021C0
:1030F0002046CDF8009001F013FA20B1202084F88A
:1031000041000320B6E7202084F841000020B1E709
:103110000220AFE710B5034693F84100202813D1F1
:1031200001B10AB9012010BD19629A84DA84002025
:103130005864212083F841001868C06840F080007E
:103140001C68E0600020EEE70220ECE7704700BF5B
:10315000FEE7000010B500BF4FF080701649086010
:1031600000BF00BF14481838006820F440201249FE
:10317000183908600846006840F48020086000BFE5
:1031800000BFC8030C49086000BF052002F060F9C9
:1031900000BF4FF480700849086000BF052002F0AE
:1031A00057F900BF4FF080700349086000BF052049
:1031B00002F04EF910BD00001804024010B586B0B0
:1031C0004048006840F080703E49086000203E4959
:1031D00048600846006840F00100086000BF002019
:1031E00000903A48006840F00200384908600846FC
:1031F000006800F00200009000BF00BF142101A889
:10320000FDF716F84FF44070019011200290012054
:1032100003900220049001A92D48FEF74BFD00BF4A
:103220004FF480702A491831086000BF00BF400089
:10323000086000BF0A2002F00BF9002415E000BF6F
:103240004FF0807022491831086000BF052002F05D
:10325000FFF800BF4FF480701D491831086000BFAF
:10326000052002F0F5F8601CC4B2092CE7DB00BFB2
:103270004FF0807016491831086000BF052002F039
:10328000E7F800BF4FF0007011491831086000BF27
:10329000052002F0DDF800BF4FF480700C491831B2
:1032A000086000BF052002F0D3F800BF4FF40070A3
:1032B00007491831086000BF052002F0C9F806B0C0
:1032C00010BD0000FCED00E0001000E030380240CE
:1032D0000004024010B500BF4FF08070164908602E
:1032E00000BF00BF14481838006820F4402012497D
:1032F000183908600846006840F48020086000BF64
:1033000000BF48150C49086000BF052002F0A0F876
:1033100000BF4FF480700849086000BF052002F02C
:1033200097F800BF4FF080700349086000BF052088
:1033300002F08EF810BD00001804024070B505467A
:10334000002400BF1E48006820F440201C4908608B
:1033500000BF00261FE000BF4FF0807018491831F1
:10336000086000BF052002F073F800BF4FF48070C2
:1033700013491831086000BF052002F069F86006A3
:10338000040E0F4810300068C0F3402008B1601CE4
:10339000C4B2701CC6B2082EDDDB00BF4FF08070D7
:1033A00007491831086000BF052002F051F815B137
:1033B000FFF7D0FE01E0FFF78DFF204670BD000053
:1033C0000004024070B5044600BF2148006820F4A4
:1033D00040201F4908600846006840F480200860CB
:1033E00000BF00BF4FF0807019491831086000BF5E
:1033F000002529E000BFE00928B14FF4007014490E
:103400001831086004E04FF000701149183108606D
:1034100000BF6006040E052002F01AF800BF4FF44A
:1034200080700B491831086000BF052002F010F8C9
:1034300000BF4FF0807006491831086000BF0520BA
:1034400002F006F8681CC5B2082DD3DB70BD000081
:103450000004024010B500BF1A48006820F4402064
:10346000184908600846006840F48020086000BFE2
:1034700000BF481513491831086000BF052001F04E
:10348000E7FF00BF4FF480700E491831086000BF9D
:10349000052001F0DDFF00BF4FF000700949183131
:1034A000086000BF052001F0D3FF00BF4FF080701F
:1034B00004491831086000BF052001F0C9FF012050
:1034C00010BD00000004024010B500BF1A4800689B
:1034D00020F44020184908600846006840F4802025
:1034E000086000BF00BF4FF08070134918310860BA
:1034F00000BF052001F0ACFF00BF4FF000700E4987
:103500001831086000BF052001F0A2FF00BF4FF492
:10351000807009491831086000BF052001F098FF4C
:1035200000BF4FF4007004491831086000BF052047
:1035300001F08EFF10BD00000004024010B5002411
:1035400000BF1A48006820F440201849086000BFF6
:10355000052001F07DFF00BF4FF480701349183142
:10356000086000BF052001F073FF0BE0601CC0B2D3
:103570000446322803DDFFF7A7FF002010BD01201D
:1035800001F066FF094810300068C0F340200028B1
:10359000ECD100BF4FF0807004491831086000BFC3
:1035A000052001F055FF0120E8E70000000402407B
:1035B00080ED000AC0ED010A7047F0EE400A90ED80
:1035C000000AB7EE001A31EE400A90ED011A20EE23
:1035D000010A90ED001A01EE200A80ED010A90ED3B
:1035E000010A704780ED000AC0ED010AF7EE001AEB
:1035F000C0ED021A80ED031A7047B0EE401A90ED4C
:10360000020A90ED002A30EE020AF0EE400A90ED38
:10361000010A30EE200A80EE802AF0EE421A90ED88
:10362000030A90ED032A31EE422A01EE820A80ED70
:10363000030AB7EE000A30EE610A20EE200A80EDA0
:10364000020A90ED030A704700B58FB000200C907D
:103650000D900E90089009900A900B9020216846DA
:10366000FCF7E6FD2C482D4908604FF48030486097
:1036700000212A4881600161017680F82010C16232
:10368000274981620021C1600121C161002180F8C8
:10369000301001214161FDF7C7FF08B1FDF750FC73
:1036A00005200C9000200E900CA91C48FDF712FE7E
:1036B00008B1FDF745FC0020089001200990042086
:1036C0000A9008A91548FDF735FE08B1FDF738FC4A
:1036D000092008900220099008A91048FDF72AFE49
:1036E00008B1FDF72DFC002000900120019004900E
:1036F000029000050790002006908DF815008DF8C7
:103700001400039069460548FDF7CEFC08B1FDF7AB
:1037100017FC0FB000BD0000002001406801002030
:103720000100000F00B58DB0002009900A900B90A9
:103730000C90202101A8FCF77BFD2048204908605F
:103740004FF48030486000211D488160016101769E
:1037500080F82010C1600121C161002180F8301083
:1037600001214161FDF760FF08B1FDF7E9FB082089
:10377000099001200A9000200B9009A91048FDF73C
:10378000D9FD08B1FDF7DCFB082001900120029073
:1037900005900390002008904FF48030079000209F
:1037A0008DF819008DF81800049001A90448FDF760
:1037B0007BFC08B1FDF7C4FB0DB000BD002101404A
:1037C000B001002000B58DB0002009900A900B9048
:1037D0000C90202101A8FCF72BFD1F481F49086011
:1037E0004FF48030486000211C4881600121016154
:1037F0000176002180F82010C1600121C161002103
:1038000080F8301001214161FDF70EFF08B1FDF78E
:1038100097FB0320099001200A9000200B9009A932
:103820000E48FDF787FD08B1FDF78AFB03200190E4
:10383000012002900590002003908DF819008DF86A
:103840001800049001A90548FDF72EFC08B1FDF70A
:1038500077FB0DB000BD000000220140F801002000
:1038600008B500BF002000900A48006840F48000BE
:10387000084908600846006800F48000009000BF16
:1038800000BF002202213820FEF7A2FB3820FEF7FD
:103890008BFB08BD3038024000B587B0142102A868
:1038A000FCF7C6FC00BF002001902E48006840F0E5
:1038B00004002C4908600846006800F004000190EC
:1038C00000BF00BF00BF002001900846006840F024
:1038D000800008600846006800F08000019000BF8A
:1038E00000BF00BF002001900846006840F00100C2
:1038F00008600846006800F00100019000BF00BFAA
:1039000000BF002001900846006840F002000860F7
:103910000846006800F00200019000BF00BF00BF31
:10392000002001900846006840F008000860084642
:10393000006800F00800019000BF00BF0022891459
:103940000948FEF7B1FA4FF480500290012003902D
:1039500000200490059002A90348FEF7ABF907B0D8
:1039600000BD0000303802400004024000B591B0B4
:1039700000200F9010901C2108A8FCF759FC202172
:103980006846FCF755FC2F482F4908600020486026
:1039900000212D48816042F6BF31C16000210161E4
:1039A00041618161FFF756F808B1FDF7C9FA0020BF
:1039B0000F9010900FA92448FEF73EFF08B1FDF7C5
:1039C000BFFA60200890002009900A900C900D909A
:1039D000002208A91C48FEF7BBFF08B1FDF7B0FAAA
:1039E000042208A91848FEF7B3FF08B1FDF7A8FAAA
:1039F000082208A91448FEF7ABFF08B1FDF7A0FAAA
:103A000042F6B63009900C2208A90F48FEF7A0FF35
:103A100008B1FDF795FA0020009001900290039004
:103A200004904FF400500590400007906946064806
:103A3000FEF7C8FE08B1FDF783FA0348FEF756FF0C
:103A400011B000BD00000140A002002010B50B48DD
:103A50000B4908604FF4E13048600021084881605C
:103A6000C16001610C21416100218161C161FFF7E9
:103A70004BFA08B1FDF764FA10BD000000440040A5
:103A8000E802002000BFFEE710B501221103024842
:103A9000FEF70AFA10BD00000004024000BFFEE776
:103AA00001B52DED040B9DED000ADDED020A20EEBF
:103AB000200ADDED010A9DED031A00EE810A80ED7A
:103AC000000A9DED000AB1EE400ADDED030A20EE8A
:103AD000200ADDED010A9DED021A00EE810A80ED5B
:103AE000010A05B000BD7047F0EE401AB0EE602A42
:103AF00071EEC23AB0EE630A3648D0ED013AB6EE46
:103B0000004A63EE843A23EE814A3348D0ED003A0E
:103B100044EE003AC0ED003A2E48D0ED033A2E486C
:103B200090ED004AF4EEC43AF1EE10FA05D22948BD
:103B3000D0ED033A2848C0ED003A2648D0ED033ACC
:103B4000F1EE633A244890ED004AF4EEC43AF1EE07
:103B500010FA07DD1F48D0ED033AF1EE633A1E4834
:103B6000C0ED003ADFED1D2A1D48D0ED003A70EEA1
:103B7000633A63EEA23A83EE813A164890ED004A2A
:103B80001548D0ED003A44EE003A73EE830A11482E
:103B9000D0ED033AF4EEE03AF1EE10FA03D2D0EDB4
:103BA000033AF0EE630A0B48D0ED033AF1EE633AC4
:103BB000F4EEE03AF1EE10FA05DDD0ED033AF1EE65
:103BC000633AF0EE630A064880ED000A0548C0ED4E
:103BD000000A70471401002064000020CDCC4C3D49
:103BE000600000205C0000207047000010B52DED43
:103BF000088BB0EE408AF0EE60BAB0EE419AB0EEBB
:103C0000490A00F025FEF1EE480A20EE200AF0EE07
:103C1000408AB0EE490A00F01BFD20EE080AF0EEE3
:103C2000409A9FED180A38EE800AB0EE40AADFED08
:103C3000160AB0EE680A10EEA90AF0EE000A80EE4D
:103C4000201A9FED100A31EE000AF0EE40AADFEDD7
:103C50000E0AB0EE680A10EEE90AB0EE001AC0EEE5
:103C6000010A9FED080A30EE800AB0EE40BAB0EECD
:103C70004B1AF0EE6A0AB0EE4A0A00F007F8BDEC03
:103C8000088B10BD9A99C940D7B3DD3FB5EEC00A85
:103C9000F1EE10FA04D29FED313AB0EE430A0AE099
:103CA0009FED2F3AB4EEC30AF1EE10FA03DD9FED5B
:103CB0002C3AB0EE430AF5EEC00AF1EE10FA04D247
:103CC0009FED263AF0EE430A0AE09FED253AF4EE26
:103CD000C30AF1EE10FA03DD9FED213AF0EE430A3C
:103CE000B5EEC01AF1EE10FA04D29FED1C3AB0EE18
:103CF000431A0AE09FED1A3AB4EEC31AF1EE10FA35
:103D000003DD9FED173AB0EE431A9FED153AC0EE72
:103D1000031A9FED133A80EE832A9FED113AC1EE0C
:103D2000032A9FED103A21EE833ABCEEC33A13EE1C
:103D3000100A0D4948639FED0B3A22EE033ABCEEA0
:103D4000C33A13EE100A88639FED063A22EE833AD7
:103D5000BCEEC33A13EE100AC863704700000000BF
:103D60009A99494100002F460000014010B5FEF726
:103D7000A7F810BD00B593B0302107A8FCF758FA9A
:103D8000142102A8FCF754FA00BF00200190244837
:103D9000006840F08050224908600846006800F042
:103DA0008050019000BF00BF00BF002001901D485F
:103DB000006840F480401B4908600846006800F431
:103DC0008040019000BF00BF0120079000040890D0
:103DD00002200D9041050E9104210F91A821109110
:103DE000022111910421129107A8FEF783FA08B16C
:103DF000FDF7A6F80F200290022003900020049007
:103E00004FF4A05005904FF480500690052102A871
:103E1000FEF730F908B1FDF793F813B000BD0000CC
:103E200040380240007000400348006840F47000D1
:103E3000014908607047000088ED00E010B5026895
:103E40002B4B98420ED0B0F1804F0BD0294B9842AB
:103E500008D0294B984205D0284B984202D0284BD5
:103E6000984203D122F070024B681A43204B9842CB
:103E700020D0B0F1804F1DD01E4B98421AD01E4B5F
:103E8000984217D01D4B984214D01D4B984211D028
:103E90001C4B98420ED01C4B98420BD01B4B9842A7
:103EA00008D01B4B984205D01A4B984202D01A4BAF
:103EB000984203D122F44072CB681A4322F0800367
:103EC0004C6943EA04028B68C3620B688362084B47
:103ED000984202D00A4B984201D10B6903630368F0
:103EE00043F00403036001234361026010BD00003E
:103EF000000001400004004000080040000C0040A9
:103F000000040140004001400044014000480140DD
:103F100000180040001C00400020004030B501F0B7
:103F20001F05012404FA05F3046A9C430462046A31
:103F300001F01F0502FA05F52C43046230BD0000B4
:103F400030B5026A056A25F0010505624368846997
:103F500024F0700424F003040D682C4322F00202C4
:103F60008D682A43104DA84200D103E00F4DA842AE
:103F700006D100BF22F00802CD682A4322F00402D5
:103F8000094DA84202D0094DA84207D123F48073FD
:103F900023F400734D692B438D692B434360846187
:103FA0004D684563026230BD0000014000040140DD
:103FB00030B5026A056A25F0100505624368846918
:103FC00024F4E04424F440740D6844EA052422F00B
:103FD00020028D6842EA0512124DA84200D103E08A
:103FE000114DA84207D100BF22F08002CD6842EAFD
:103FF000051222F040020B4DA84202D00A4DA84201
:1040000009D123F4806323F400634D6943EA8503F7
:104010008D6943EA8503436084614D68856302626C
:1040200030BD0000000001400004014030B5026ACC
:10403000056A25F4807505624368C46924F070043C
:1040400024F003040D682C4322F400728D6842EAC8
:104050000522124DA84200D103E0114DA84207D11C
:1040600000BF22F40062CD6842EA052222F4806299
:104070000A4DA84202D00A4DA84209D123F4805328
:1040800023F400534D6943EA05138D6943EA051390
:104090004360C4614D68C563026230BD00000140E9
:1040A0000004014030B5036A056A25F480550562B5
:1040B0004468C26922F4E04222F440720D6842EA88
:1040C000052223F400538D6843EA0533084DA842C6
:1040D00002D0084DA84204D124F480444D6944EA3A
:1040E00085144460C2614D680564036230BD000000
:1040F000000001400004014070B50446A56B00209B
:10410000E8852846FEF77BFD70BD00BF00BF026852
:104110000C3252E8002F22F4907102680C3242E80F
:104120000013002BF3D100BF00BF00BF02681432A0
:1041300052E8002F22F001010268143242E8001315
:10414000002BF3D100BF016B01290ED100BF00BFCE
:1041500002680C3252E8002F22F0100102680C3283
:1041600042E80013002BF3D100BF202180F8421059
:1041700000210163704710B504462068C06820F034
:1041800040002168C860202084F841002046FEF7E6
:10419000DDFF002010BDF8B504460025002694F888
:1041A0004200222873D1A068B0F5805F0BD120694E
:1041B00048B9A66A20684068C0F308003080A06A49
:1041C000801CA06214E0A56AA068B0F5805F03D0EF
:1041D000A06828B9206918B920684068287004E0F0
:1041E0002068406800F07F002870A06A401CA06230
:1041F000E08D401E80B2E085002846D12068C0686E
:1042000020F020002168C8602068C06820F4807019
:104210002168C8602068406920F001002168486179
:10422000202084F8420000206063206B012826D102
:104230000020206300BF00BF21680C3151E8001F3F
:1042400021F0100021680C3141E80002002AF3D16E
:1042500000BF2068006800F0100010280AD100BFDD
:10426000002000902068006800902068406800905E
:1042700000BF00BFA18D2046FEF7C0FC02E0204633
:10428000FEF7E8FE0020F8BD01E00020FBE7022079
:10429000F9E700002DE9F84F04462068006920F492
:1042A0004050E1680843216808612169A06808431B
:1042B00061690843E169084300902068C06849F2D9
:1042C0000C618843009908432168C86020684069F0
:1042D00020F44070A169084321684861764920684C
:1042E000884203D075492068884203D1FDF79AFFC0
:1042F000814602E0FDF786FF8146E069B0F5004F98
:104300006CD102206168A0FB015003461920A9FB73
:10431000007001462A463846FBF752FF6421B0FB85
:10432000F1F04FEA001A02206168A0FB01510B4630
:104330001920A9FB00712A463846FBF741FF834646
:1043400002206168A0FB015003461920A9FB0071FF
:104350002A463846FBF734FF6421B0FBF1F000EB4E
:10436000C00101EB0010ABEB8000322101EBC0007B
:104370006421B0FBF1F000F0F8000AEB400A0220E3
:104380006168A0FB015003461920A9FB007001469B
:104390002A463846FBF714FF834602206168A0FBDB
:1043A000015003461920A9FB00712A463846FBF745
:1043B00007FF6421B0FBF1F000EBC00101EB00103E
:1043C000ABEB8000322101EBC0006421B0FBF1F0C7
:1043D00000F007005044216888606AE004206168AA
:1043E000A0FB015003461920A9FB007001462A4694
:1043F0003846FBF7E5FE824604206168A0FB0150C9
:1044000003461920A9FB007001462A463846FBF7EF
:10441000D7FE6421B0FBF1F000EBC00101EB00100E
:10442000AAEB8000322101EB00106421B0FBF1F017
:1044300000F0F00A04206168A0FB01700346192017
:10444000A9FB00513A462846FBF7BAFE6421B0FBAF
:10445000F1F00AEB001A04206168A0FB01510B4641
:104460001920A9FB00712A463846FBF7A9FE8346AE
:1044700004206168A0FB015003461920A9FB0070CD
:1044800001462A463846FBF79BFE6421B0FBF1F05B
:1044900000EBC00101EB0010ABEB8000322101EB1F
:1044A00000106421B0FBF1F000F00F0050442168CF
:1044B0008860BDE8F88F0000001001400014014042
:1044C000014691F84100212828D18868B0F5805F25
:1044D0000BD1086948B90A6A1088C0F308000B6854
:1044E0005860086A801C086205E00B6A581C086264
:1044F00018780B685860C88C401E80B2C88458B9C0
:104500000868C06820F080000B68D8600868C06840
:1045100040F040000B68D860002070470220FCE7A4
:104520002DE9F84304460D4617469846089E31E0AB
:10453000701C70B3FDF7BEFCA0EB0800B04200D8C1
:1045400016B90320BDE8F8832068C06800F00400B5
:10455000F8B1802D1ED0402D1CD020680068C0F31B
:10456000C000B0B100BF002000902068006800903B
:1045700020684068009000BF00BF2046FFF7C5FDDF
:104580000820606400BF002084F8400000BF0120C4
:10459000D8E7FFE7206800682840A84201D1012041
:1045A00000E00020B842C3D00020CBE710B502489D
:1045B000FEF726FB10BD0000E802002000BFFEE76A
:1045C0000FB41CB50246002007AC00290BD0491ED1
:1045D000CDE90021054B6A462146069800F096FB7E
:1045E000009A002111701CBC5DF814FB3B540008BC
:1045F0004100080218BF04200A0E18BF40F0010055
:104600004FF07F4232EA010108BF40F0020001286A
:1046100008BF05207047000002480068C0F3022070
:10462000704700000CED00E010B5002804DB0A071D
:10463000130E054A135406E00A07140E034A00F04D
:104640000F031B1FD45410BD00E400E018ED00E080
:1046500010EE101A08B5444A6846B2EB410F28D94B
:104660004FF0E640B0EB410F94BF00204FF0FF3019
:1046700000900098002861DB60EE000A10F0010F46
:1046800045D010F0020FDFED391A9FED391A00EE18
:10469000E11ADFED381A40EE811A21EEA01AF0EE91
:1046A000400A40EE010A08BFF1EE600AB0EE600A6F
:1046B00008BD314B21F0004293423CD911F0004F2C
:1046C000DFED2E0A20EE201ADFED2D0A19BF31EEA4
:1046D000601A71EE200A31EE201A71EE600ABDEE0A
:1046E000E01A11EE100A9FED271A00F0030000EE09
:1046F000C10A9FED251A009000EEC10A9FED231A12
:1047000000EEC10A9FED221A00EEC10AB1E79FED4B
:10471000211A9FED210A10F0020F00EE810A9FED91
:104720001F1A00EE801AB7EE000A00EE810A18BFC9
:10473000B1EE400A08BD00F067F99AE710EE100AE2
:104740004000B0F17F4F3CBFB7EE000A08BD07D173
:104750004FF0010000F012FABDE8084000F044B943
:10476000BDE8084000F03CB9B61F927E336D4C396D
:10477000DA82083CA0AA2ABE490E494683F9223FA4
:104780000000004B0000C93F00A0FD390020A2330B
:104790001A61342CB93AB2BACA9F2A3DDDFFFFBE76
:1047A00010B52DED028BF0EE408A18EE900AB0EEB7
:1047B000608A20F00040C0F1FF40C00F07D118EE22
:1047C000100A20F00040C0F1FF40C00F2BD018EEBF
:1047D000101A18EE900AFBF77EFD00EE100A10EE9C
:1047E000100A6FEAD05010F0FF0F04BFBDEC028B2F
:1047F00010BD18EE900A00F0004110EE100A00F013
:104800000040814204BFBDEC028B10BD18EE101AAF
:1048100010EE100ABDEC028B61F31E0000EE900A50
:1048200030EE600A10BD18EE900A4FF07F41B1EBF8
:10483000400F1CBF18EE100A5FEA4000C7D10120EC
:1048400000F09CF9BDEC028BBDE8104000F0CCB844
:1048500000B510EE101A2DED028B81B0524A684659
:10486000B2EB410F2ED94FF0E640B0EB410F94BFB1
:1048700000204FF0FF3000900098B0EE408A0028F2
:104880006ADB10F0010F4BD068EE080A9FED471A63
:104890009FED470A00EE810A9FED461A10F0020FC5
:1048A00000EE801AB7EE000A00EE810A02BF01B0E6
:1048B000BDEC028B00BD00BF01B0B1EE400ABDEC03
:1048C000028B00BD3C4B21F00042934241D911F0D4
:1048D000004FDFED3A0A20EE201ADFED390A19BF4A
:1048E00031EE601A71EE200A31EE201A71EE600A84
:1048F000BDEEE01A11EE100A9FED321A00F003002F
:1049000000EEC10A9FED301A009000EEC10A9FED43
:104910002F1A00EEC10A9FED2E1A00EEC10AABE776
:1049200028EE080A9FED2B1ADFED2B0A10F0020F7C
:1049300040EE410A9FED291A00EE201A61EE000AAE
:10494000B0EE480A08EE200AB6D101B0BDEC028BE9
:1049500000BD00F059F88FE718EE100A4000B0F1E2
:104960007F4F0DD218EE100AFFF742FE042808BF51
:1049700000F042F8B0EE480A01B0BDEC028B00BD79
:1049800009D1012000F0FAF801B0BDEC028B5DF80E
:1049900004EB00F029B801B0B0EE480ABDEC028B80
:1049A0005DF804EB00F01CB8B61F927EB93AB2BABB
:1049B000CA9F2A3DDDFFFFBE490E494683F9223FCB
:1049C0000000004B0000C93F00A0FD390020A233C9
:1049D0001A61342C336D4C39DA82083CA0AA2ABE05
:1049E00030EE000A70470000DFED020A80EEA00AF8
:1049F00070470000000000009FED020A20EE000A50
:104A000070470000000000102DE9F0014FF07F42D8
:104A1000B2EB410F9FBF4FF0FF310160BDE8F001E5
:104A200070474FF0004242EA0123C1F3C752783A7F
:104A3000551112F01F0C434CCCF120067C44C1F3FD
:104A4000C752A2F178024FEA621204EB820254F8D4
:104A5000254008BFD2E9015612D0556804FA0CF47B
:104A600025FA06F73C43976805FA0CF527FA06F88D
:104A7000D26807FA0CFCF24045EA08054CEA020647
:104A8000A4FB034CA5FB0352A6FB03631D449D42FC
:104A900034BF012600261319334416B1934202D9BC
:104AA00003E0934201D2012200E00022624402F1BD
:104AB000200C9206DC0C42EA443200EE102A5B0322
:104AC000DFED210AF8EEC01A00EE103A4FEA9C1C06
:104AD00011F0004FB8EE400AC0F800C020EE201AD6
:104AE00000EE105ADFED190AB8EE400A20EE200A57
:104AF00071EE810A70EE800A10EE902A02F50062D3
:104B00006FF30B0200EE902A70EEE11A31EEC11A3B
:104B1000DFED101A30EE411A9FED0D0A20EE800AEB
:104B200001EE210A9FED0C1A00EE810A04BFBDE8D8
:104B3000F0017047CCF180510160BDE8F001B1EEA9
:104B4000400A70477C0F0000000000360000802CF7
:104B500022AAFD29DB0FC92F0000C92F02E008C8D7
:104B6000121F08C1002AFAD170477047002001E0E7
:104B700001C1121F002AFBD17047000001490860E3
:104B800070470000900000202DE9FF5F82B00021F7
:104B9000DDE90430020DDDF840B0034318D044F6DF
:104BA0001050A2F2FF3242431514119801281FD071
:104BB000A5EB0B00401C5FEA000A4FF000064E4FC9
:104BC000DFF83891B046504615D5CAF1000413E01D
:104BD000119801244AA3012801D16FEA0B01029820
:104BE000119AC0E90031C0E9024206B0BDE8F09F69
:104BF000CBF10000DFE704460021404A491842EBB0
:104C00000450CDE9001012E0E00707D032463B46E1
:104C100040464946FBF72FFC8046894632463B46D4
:104C200010461946FBF727FC06460F466410002C79
:104C3000EAD1DDE90401DDE90023BAF1000F06DA6B
:104C4000FBF719FC42464B46FBF715FC05E0FBF76A
:104C500084FC42464B46FBF780FC04460E4600228D
:104C6000284BFBF701FD03D84FF0FF30014607E06A
:104C70000022254B20463146FBF756FBFBF7DCFCB8
:104C8000102409E0002C0ADB0A220023FBF798FA23
:104C9000039B30321A55641E50EA0102F2D1641CA3
:104CA000039AC4F111031444119A012A03D001227A
:104CB00008430DD10AE0084304D000204FF0110B47
:104CC000119072E7A3EB0B056D1E0DE05B4504DD53
:104CD0004FF0000205F1010504E003DA4FF0000295
:104CE000A5F10105002AECD002981199C0E9023122
:104CF000C0E9004579E70000000014400000F03FE3
:104D0000300000000000F0430000E03F2DE9FF4FBD
:104D100095B09B468946064600250FE2252877D1A7
:104D200000242746F84A0121059400E0044316F8C0
:104D3000013F203B01FA03F01042F7D130782A28D6
:104D400011D06FF02F033078A0F13002092A16D865
:104D5000059A44F0020402EB820203EB4202104483
:104D6000761C0590EFE759F8042B0592002A03DA28
:104D7000504244F40054059044F00204761C30780C
:104D80002E2816D116F8010F44F004042A280DD05D
:104D90006FF02F023078A0F13003092B09D807EB10
:104DA000870302EB4303C718761CF3E759F8047B2B
:104DB000761C30786C280FD006DC4C2817D0682879
:104DC0000DD06A2814D104E0742810D07A280FD1AD
:104DD0000DE044F400140AE044F4801401E044F4CB
:104DE00040147278824202D104F58014761C761C3D
:104DF000307866280BD013DC582877D009DC0028DF
:104E000075D04528F6D04628F4D047281AD19DE120
:104E100018E0632835D0642879D0652812D195E14F
:104E2000702873D008DC6728F1D069286FD06E280D
:104E30000DD06F2806D1B5E073282CD0752875D019
:104E4000782874D05A46179990476D1C75E1C4F3C1
:104E50000250022809D003280DD0D9F800100428E8
:104E60000DD00D6009F1040967E1D9F80010EA17C7
:104E7000C1E90052F6E7D9F800100D80F2E70D7095
:104E8000F0E719F8041B8DF8001000208DF80100E0
:104E9000EA46012003E059F804AB4FF0FF30610708
:104EA0004FF0000102D40DE008F101018846B9423B
:104EB0000FDA8045F8DB1AF808100029F4D108E071
:104EC00008F1010188468142FADB1AF8081000292E
:104ED000F6D105985B46A0EB080721463846179A9D
:104EE00000F094FA284400EB080507E04DE029E1C2
:104EF0000DE01AF8010B5A4617999047B8F10108CE
:104F0000F7D25B4621463846179A13E142E00A225F
:104F10000092C4F302524FF0000A022A08D059F856
:104F200004CB032A4FEAEC710AD00DE029E02AE015
:104F300009F1070121F00702F2E802C1914609E0F8
:104F40000FFA8CFC4FEAEC71042A03D14FFA8CFC67
:104F50004FEAEC71002907DA0A460021DCF1000C67
:104F600061EB02012D2202E0220504D52B228DF8EF
:104F70000420012203E0E20701D02022F7E7904657
:104F800059E00A2102E010220DE010214FF0000A42
:104F900000910BE010224FF0000A44F004040827AF
:104FA000009203E008224FF0000A0092C4F302527C
:104FB000022A05D059F804CB0021032A08D009E0C1
:104FC00009F1070121F00702F2E802C1914605E06C
:104FD0001FFA8CFC042A01D10CF0FF0C4FF00008E2
:104FE000220728D5702806D0009B83F0100353EACF
:104FF0000A0305D00EE040228DF80420012208E0CB
:105000005CEA010206D030228DF804208DF80500FC
:1050100002229046009B83F0080353EA0A030AD158
:105020005CEA010201D1620705D530228DF8042027
:105030004FF001087F1E582804D034A003900EA81A
:1050400002900DE036A0F9E753466046009AFBF760
:10505000B7F884460398825C0298401E0290027062
:105060005CEA0100F0D1029806A9081A00F1200AB2
:10507000600702D524F4803400E00127574502DDA3
:10508000A7EB0A0000E0002000EB0A010090059861
:105090004144401A0590E00306D45B462146179A26
:1050A000059800F0B3F90544002706E001A85A4628
:1050B000C05D179990476D1C7F1C4745F6DBE003E8
:1050C0000CD55B462146179A059800F09FF90544D8
:1050D00004E030205A46179990476D1C0099481EED
:1050E00000900029F5DC08E0029802995A46007801
:1050F000491C0291179990476D1CBAF10001AAF161
:10510000010AF1DC65E10000092801003031323389
:1051100034353637383961626364656600000000F3
:1051200030313233343536373839414243444546DD
:105130000000000000F058F90544761C3078002883
:105140007FF4ECAD19B02846BDE8F08F620700D4BB
:10515000062709F1070222F0070CFCE80223E146CA
:1051600003F000485FEA080C02D00FF2702C0DE04B
:105170005FEA045C02D50FF2682C07E05FEAC47CAA
:1051800002D00FF2602C01E0AFF2700C4FF0FF384C
:1051900023F00043CDF850C065280CD006DC45282C
:1051A00009D046281DD047283DD13DE0662818D0BB
:1051B00067287ED138E00021112F01DB112000E0AB
:1051C000781CCDE9000106A90EA8FFF7DDFCDDE99A
:1051D0000F010E9A03910021009207F1010A049138
:1051E0004DE04FF000400097CDE9011006A90EA850
:1051F000FFF7CAFCDDE90F0203920E9B1199002212
:10520000DDF80CA00093049211B9791C00EB010A9F
:10521000B7EB0A0004D4C0F1FF3007F1010A049093
:10522000AAEB0700019044E0012F00DA01270021DA
:10523000112F01DD112000E03846CDE9000106A95B
:105240000EA8FFF7A1FCDDE90F010E9A03910021E2
:1052500004910092BA4621070CD40399514500DA13
:105260008A46BAF1010F05DD009AAAF10101515CED
:10527000302908D0B84202DA10F1040F06DA012111
:10528000CDE9011015E0AAF10101E9E7002805DCEC
:10529000049901440491AAEB000102E0411C51452C
:1052A00000DD8A460499401A401C01904FF00040EE
:1052B0000290200704D40198504501DBCDF804800A
:1052C00000208DF84F0002980DF14F07B0F1004F0C
:1052D00025D02B200E9002984FF0020800280CDAFF
:1052E000404202902D200E9007E00A210298FAF722
:1052F000BDFF3031029007F8011DB8F10001A8F19F
:105300000108F2DC02980028EFD1791E0E9808708F
:10531000307800F0200040F0450007F8020D12A898
:10532000C01B00F107081498007800B1012000EBC1
:105330000A01019801EBE07105984144401A401EB2
:105340000590E00306D45B462146179A059800F0C5
:105350005DF805441498007818B15A46179990479B
:105360006D1CE00324D55B462146179A059800F092
:105370004DF805441CE00498002807DBDDE9030133
:10538000884203DD0098405C179901E017993020AE
:105390005A469047049805F10105401C0490019875
:1053A000401E019004D12E205A46179990476D1C3B
:1053B000BAF10001AAF1010ADDDC05E017F8010BE2
:1053C0005A46179990476D1CB8F10001A8F10108E1
:1053D000F4DC5B462146179A0598ABE62D000000E9
:1053E0002B000000200000002DE9F04104460025BC
:1053F0001E461746880404D405E039462020B047ED
:105400006D1C641EF9D52846BDE8F0812DE9F041F8
:10541000044600251E469046C80301D5302700E00B
:105420002027880404D505E041463846B0476D1C66
:10543000641EF9D52846BDE8F0814A68002A06D0E6
:105440000A68531C0B6010704868401E4860704723
:10545000054B5968A82300FB03F200BF024B5B68B1
:105460005B1A9342FAD37047001000E02DE9F04137
:1054700005460F4614461E46FDF7ECFF10B9012005
:10548000BDE8F0816906080EFDF79CFFFEF756F8AF
:1054900018B9FEF719F80120F2E73846FDF792FF38
:1054A000FEF74CF818B9FEF70FF80120E8E7FDF712
:1054B000D1FF012101EB4501C8B2FDF783FFFEF7E3
:1054C0003DF818B9FEF700F80120D9E70BE0012CF0
:1054D00001DD012100E000210846FDF72FFF3070BB
:1054E000761C601EC4B2002CF1D1FDF7EDFF002048
:1054F000C6E700002DED0A8B8AB0FCF7EDFCFEF745
:1055000039FCFEF7C9F9FEF7ABF9FEF72FFAFEF703
:105510009BF8FEF707F9FEF755F9FEF797FA00F04A
:105520007BF864230B222BA12D48FDF794FD4FE05F
:105530002C48007800284BD0294890F841002028BA
:1055400046D100202749087027480068FAF77BFEFB
:1055500041EC180B254890ED010A10EE101A084690
:10556000FAF771FE41EC190B204890ED000A10EE9D
:10557000101A0846FAF767FE41EC1A0B1C4890ED2A
:10558000000A10EE101A0846FAF75DFE41EC1B0BFC
:10559000174890ED010A10EE101A0846FAF753FE6C
:1055A00041EC1C0B8DED088B8DED069B8DED04AB56
:1055B0008DED02BB8DED00CB0EA240211548FEF70C
:1055C000FFFF0446A2B213490548FDF7A3FD00BF43
:1055D000AEE70000464F432053544152540D0A0099
:1055E000E80200201000002074000020AC00002021
:1055F0003C000020252E3366202C252E3366202CDF
:10560000252E3366202C252E33662C252E33660D51
:105610000A0000002801002010B52DED028BFEF7D6
:1056200033FA00215648FDF763FA04215448FDF788
:105630005FFA08215248FDF75BFA0C215048FDF74C
:1056400057FA4F480068406C40F400404C490968E4
:1056500048644C48006820F01F00401D4A49C1F8CA
:1056600004030846806840F0010088600846D0F8CE
:10567000080140F0010045490860002044494863A2
:105680008863C8630A20FCF701FB9FED420AB0EE75
:10569000408A9FED400AF0EE408A002033E03E4908
:1056A00003E04A1E111E00D13DE0374A126802F0A5
:1056B0000402002AF5D0344AD26BC2F30B0200EE8A
:1056C000102AB8EE400A30EE080AB0EE408A2F4A9F
:1056D00034321268C2F30B0200EE102AB8EE400A10
:1056E00030EE280AF0EE408A274A126822F00402BF
:1056F000254B1A601A46D2F8002122F00402234BEF
:10570000083B1A60401C8028C9DB9FED240AC8EEC4
:10571000000A2348C0ED000A9FED200AC8EE800A67
:10572000C0ED010A00BF1848006820F004001649C7
:10573000086016480838006820F00400C1F800012D
:105740000020134948638863C863FDF737FDFBF702
:1057500087F9FBF7F9FB0C48006820F004000A49C0
:1057600008600846D0F8000120F00400C1F80001EC
:105770000846406840F080004860BDEC028B10BDD8
:10578000A002002004230140002001400821014024
:105790000000014000000000400D03000000004335
:1057A0000400002010B52DED048B6548006842F21E
:1057B000107188421ED262480068401C604908602F
:1057C0009FED601ADFED600AB0EE080AFEF70EFAF0
:1057D0005B48006842F21071884208D1FBF740F93B
:1057E000FBF78AF99FED580A584880ED000ABDEC96
:1057F000048B10BD56480078401CC0B25449087054
:1058000019280FDB00200870FBF776F901205149B9
:1058100008709FED511A4D48D0ED000A9FED4A0ADD
:10582000FEF762F94D48C06BC0F30B0000EE100AA2
:10583000B8EE408A4A480068C0F30B0000EE100A38
:10584000F8EE408A474890ED000A38EE400AB1EE83
:10585000400ADFED450A20EE209A90ED010A38EE6D
:10586000C00AB1EE400ADFED400A60EE209AB0EEC9
:10587000490A3E48FDF7C1FE3D4880ED000AB0EE02
:10588000690A3C48FDF7B9FE394880ED010A90ED00
:10589000000AB1EE400AD0ED010A30EE600A80ED58
:1058A000020A3548354991ED000AFBF7A9F9344859
:1058B0002F4991ED021AD1ED010A91ED000AFBF793
:1058C000B7F930482C49D1ED011A91ED001A2C4955
:1058D000D1ED010A91ED000AFEF7E2F82948D0ED7A
:1058E000000AB0EE600A2848FDF767FE254880ED03
:1058F000000AD0ED010AB0EE600A2448FDF75DFE13
:10590000204880ED010A9FED222AD0ED011A90ED8A
:10591000001A2048D0ED000A9FED0B0AFBF7A2F910
:105920001D4890ED001AF0EE410A90ED011AB0EE1C
:10593000410A124890ED001AFEF758F900BF56E7E9
:1059400014000020E4CB964000000000740000200A
:1059500018000020100000200AD7A33B00200140BF
:105960003C210140040000203333D33AB80000202A
:10597000AC000020C80000201C0000206C000020AB
:10598000340000203C000020440000204C00002097
:105990004AE18B385C00002024000020000610162D
:1059A00000061016000000000000000001020304C1
:1059B00006070809000000000102030400000000BF
:1059C0006E83F9A22915444ED15727FCC0DD34F56A
:1059D000999562DB4190433CAB6351FEFC59000852
:1059E00000000020940000005C4B0008905A000862
:1059F000940000209C0600006C4B00080000000092
:105A0000000000450000004500000000000000000C
:105A10000000000000000000000000000000000086
:105A20000000000000000000000000000000000076
:105A30000000000000000000000000000000000066
:105A40000000000000000000000000000000000056
:105A50000000000000000000000000000000000046
:105A60000000000000000000000000000000000036
:105A70000000000000000000000000000000000026
:105A800010000000010000000024F40000000000ED
:040000050800018965
:00000001FF
